:020000040800F2
:1000000018090020A50100083327000875240008FE
:1000100031270008B10400086D300008000000001E
:10002000000000000000000000000000F9290008A6
:10003000B30400080000000035270008FD2900086F
:10004000BF010008BF010008BF010008BF01000890
:10005000BF010008BF010008BF010008BF01000880
:10006000BF010008BF010008BF010008BF01000870
:10007000BF010008BF010008BF010008BF01000860
:10008000BF010008BF010008BF010008BF01000850
:10009000BF010008BF010008BF010008BF01000840
:1000A000BF010008012B0008BF010008BF010008C4
:1000B000BF0100080000000000000000BF010008B0
:1000C000BF0100080000000000000000BF010008A0
:1000D00000000000553000086130000800000000FA
:1000E000BF010008BF010008000000000000000080
:1000F0000000000000000000000000000000000000
:10010000000000000000000000000000BF01000827
:100110000000000000000000BF010008BF0100084F
:10012000BF010008BF010008BF010008BF010008AF
:10013000BF010008000000000000000000000000F7
:10014000BF010008BF010008BF010008BF0100088F
:10015000BF010008BF010008BF010008BF0100087F
:10016000BF010008BF010008BF0100080000000037
:10017000BF010008BF0100080000000000000000EF
:10018000BF010008BF010008BF010008DFF810D060
:1001900000F0E4F800480047C5320008AFF30080E3
:1001A000180900200648804706480047FEE7FEE79A
:1001B000FEE7FEE7FEE7FEE7FEE7FEE7FEE7FEE717
:1001C000BD2A00088D0100082DE9F05F05460020DA
:1001D00092469B4688460646814640241BE02846B8
:1001E00041464746224600F05FF853465A46C01A39
:1001F000914110D311461846224600F046F82D1AB8
:1002000067EB01084F4622460120002100F03DF82F
:1002100017EB00094E41201EA4F10104DFDC484623
:1002200031462A46434600F000B830BCBDE8C09FC6
:10023000D2B201E000F8012B491EFBD27047002228
:10024000F6E710B513460A4604461946FFF7F0FFD5
:10025000204610BD10B54843044602F04BFF00286D
:1002600005D00021002C02D0641E0155FAE710BD14
:1002700070B5064602F00CFF046805460A2200210C
:10028000304600F033F82C6070BD202A04DB203AA1
:1002900000FA02F1002070479140C2F1200320FAD9
:1002A00003F3194390407047202A04DB203A21FAD7
:1002B00002F00021704721FA02F3D040C2F120027F
:1002C000914008431946704740EA01039B0703D059
:1002D00009E008C9121F08C0042AFAD203E011F885
:1002E000013B00F8013B521EF9D270472DE9F0475F
:1002F00091460F4680460446002614F8015B2DB156
:1003000000F03EF80068405DC007F6D12B2D02D00A
:100310002D2D18D0641E4A463946204600F034F888
:1003200027B13968A14201D1C7F8008071054FF0AB
:1003300002040BD54042002803DD02F0A9FE046050
:10034000A007BDE8F08746F48066E4E70028F8DA05
:1003500002F09EFE04606FF00040F2E7064C074D8D
:1003600006E0E06840F0010394E807009847103485
:10037000AC42F6D3FFF70EFF3835000858350008B9
:1003800000487047343500082DE9F05F8246007858
:10039000002715468B460AF10104B946302801D0E2
:1003A0009DB113E014F8010B0127782803D05828D9
:1003B00001D045B10AE00DB1102D07D1002710255D
:1003C00014F8010B02E0082500E00A250026B046DB
:1003D0000EE005FB080005FB06F1012701EB1046C6
:1003E0001FFA80F8B6F5803F00D3B94614F8010B28
:1003F000294600F01BF80028EBDABBF1000F05D00E
:100400000FB1641E00E05446CBF80040B9F1000F74
:1004100006D002F03DFE02210160C81E00F003B8C4
:1004200048EA0640FAE730BCBDE8C09F3A2800D24F
:10043000303820F02002412A01D3A2F1370088424F
:1004400001D34FF0FF30704770B5044600688168F3
:1004500011F0010F28D18168144A114215D1816829
:10046000D5432940491C816000F000FD064616E096
:10047000816811F0010F03D181682940491C816016
:1004800000F0F4FC801B022809D9606D40F01000D8
:100490006065A06D40F00100A065012070BD20687E
:1004A0000168C943C907E3D1002070BD3F00008047
:1004B000FEE7704770B506465FF0000506EB850065
:1004C000006CC8B106EB850456F82500216E50F883
:1004D0002100804756F82510226E002041F82200A6
:1004E000216E491C2166216E226A914200D120664C
:1004F000206C401E206470BD6D1C082DDEDB70BDBD
:100500002DE9F041064680680F46002816D0B468F1
:1005100012E000BF306804EB440100EB810568681D
:1005200038B9AA682968384602F050F9B068401E08
:10053000B0606868401E6860641EEBD5BDE8F0815D
:100540002DE9F84F00270446009790F85000DFF897
:10055000B0930D46B846012811D0012684F85060AA
:10056000206801F0A3FF60B1606D40F0200060657D
:100570005FF0010784F85080384600F0D7B90220B8
:10058000FBE768680C23052812D8022807D0032847
:1005900007D0042807D0052807D0062007E06B60A5
:1005A00006E0122003E0182001E04FF4807068603C
:1005B000D5E90021206803EA91131844036B01F088
:1005C0001F014FF01F0C0CFA01FCC2F3846223EAF6
:1005D0000C038A4013430363206801F067FF8246DF
:1005E000206801F05FFF5AEA00001DD1AA6829685F
:1005F000206801F067FF20686969C268C2F3C10220
:10060000520091402A69042A0FD000EB82002B6827
:10061000026EDFF8F0C203F0F84302EA0C020B436B
:100620001A4342F00041016672E0002101F034FFFC
:10063000400320684FF0000172D001F02DFF90FAC6
:10064000A0F0B0FA80F1286842036ED090FAA0F0D2
:10065000B0FA80F0814204D100221146206801F0F6
:1006600040FF0121206801F017FF400320684FF090
:1006700001015DD001F010FF90FAA0F0B0FA80F116
:100680002868420359D090FAA0F0B0FA80F0814275
:1006900004D100220121206801F023FF02212068FB
:1006A00001F0FAFE400320684FF0020148D001F04B
:1006B000F3FE90FAA0F0B0FA80F12868420344D02B
:1006C00090FAA0F0B0FA80F0814204D10022022119
:1006D000206801F006FF0321206801F0DDFE4003E1
:1006E00020684FF0030133D001F0D6FE90FAA0F05D
:1006F000B0FA80F1286842032FD090FAA0F0B0FA47
:1007000080F0814204D100220321206801F0E9FE3B
:100710002068816811F0010F22D0ACE000E004E015
:1007200001F0BAFEC0F384618DE7C0F3846091E705
:1007300001F0B2FEC0F38461A2E7C0F38460A6E7D3
:1007400001F0AAFEC0F38461B7E7C0F38460BBE7A1
:1007500001F0A2FEC0F38461CCE7C0F38460D0E76F
:100760002A7B296850F8B03FC1F3120C23EA0C032E
:1007700002F0180C644A22FA0CF20A401343036098
:10078000E968494577D1286841031CD090FAA0F167
:10079000B1FA81F1491C01F01F0109294FEA4031EA
:1007A00032D8002912D000BF90FAA0F1B1FA81F13D
:1007B00001F1010101F01F0106FA01F609D100BFA4
:1007C000C0F3846109E0C0F38461E3E7C0F38461AE
:1007D000EEE790FAA0F1B1FA81F101F1010101F027
:1007E0001F0146EA816102D1C0F3846003E090FA00
:1007F000A0F0B0FA80F000F1010000F01F0000EB63
:10080000400041EA005132E000290ED090FAA0F1F8
:10081000B1FA81F101F1010101F01F0106FA01F6BF
:1008200006D100BFC0F3846106E0C0F38461F1E744
:1008300090FAA0F1B1FA81F101F1010101F01F017B
:1008400046EA816102D1C0F3846003E090FAA0F02F
:10085000B0FA80F000F1010000F01F002B4A00EB1D
:10086000400002EB005041EA000141F00071AA682B
:10087000206801F027FE26482A6802423FF47AAE3B
:1008800024488168244D254B01F0E071AA421AD119
:100890000D0218D422689A427FF46CAE826841F44B
:1008A000000122F0E0720A4382601D481D49006881
:1008B000B0FBF1F000EB4000800000E0401E009033
:1008C0000028FBD156E6184DAA4207D1CD0105D428
:1008D00022689A42F6D141F080710AE06FF000453B
:1008E000EA42EFD14A02EDD422689A42EAD141F4B9
:1008F0008001826822F0E0720A4382603AE60000DA
:1009000000007F4000F0FF03FFFF0700000020FE13
:100910000000088000030450000052C7000004508B
:1009200014000020400D0300000084CB18BCBDE87B
:10093000E08F0068006C7047F8B54FF000050400C8
:100940002E46009502D0606D10B107E00120F8BD81
:10095000204600F0C7F8A66584F8506020688168DA
:10096000C1F3407119B18168564A11408160206815
:100970008168C1F3007179B98168534A114041F02F
:1009800080518160514852490068B0FBF1F000E0AD
:10099000401E00900028FBD120688168C1F30071DF
:1009A00041B9616D41F010016165A16D41F0010136
:1009B000A165012501F07AFD616DC90600D430B151
:1009C000606D40F01000606501252846F8BD606D3F
:1009D00020F4807040F0020060652068806810F0AC
:1009E000010F0BD13B48806810F0010F06D13A4847
:1009F0006168826822F47C120A438260E168606B5D
:100A0000627E0843A16841EA4231084394F820100D
:100A100040EA0140012904D1A18C304A02EB414156
:100A20000843A16A29B101F47071E26A014342EA04
:100A300001002168CA682A4B1A400243CA60206834
:100A400001F034FD0646206801F02CFD304315D13D
:100A5000207E94F83010800340EA41022068C1688B
:100A600044F2020399431143C16094F8380001280D
:100A70000CD02068016921F0010101612069012881
:100A80002068016B21F00F0111D013E0D4E90F01B0
:100A90000843D4E911121143084321680A6940F25E
:100AA000FC739A43104340F001000861E6E7E269F5
:100AB000521E11430163606D20F0020040F00100FE
:100AC000606582E7C0FFFF5FC0FFFF7F140000206A
:100AD000400D030000000450000304500000FEFF1E
:100AE00007C0F0FF10B586B0044614216846FFF732
:100AF000A6FB1149206888421BD11048C16C41F403
:100B00000051C164C16C01F400510591C16C41F008
:100B10000101C164C06C694600F0010005908020AD
:100B200000900B200190002002904FF0904000F0C8
:100B3000C7F806B010BD00000000045000100240CD
:100B40002DE9F041044640690D4608280AD0206886
:100B5000C068C00708D0606D40F0200060650120CB
:100B6000BDE8F081082600E0042600F07FF9074682
:100B700007E0681C05D000F079F9C01BA8420FD827
:100B800075B1206800683042F3D0606D40F40070A9
:100B90006065206801F08EFCD0B1607E48B117E03E
:100BA000606D40F004006065002084F85000032070
:100BB000D6E72068006800070AD5606D20F48070D1
:100BC0006065606DC00403D4606D40F00100606535
:100BD0002068C168082E05D0490401D40C210160A9
:100BE0000020BDE70821FAE710B50446006801F0CF
:100BF0005DFC10B10221084610BD94F85000012898
:100C00000CD0012084F850002046FFF71DFC0100A5
:100C10004FF0000004D084F85000ECE7022010BD33
:100C2000626D40F601639A4342F480726265626DC0
:100C3000D20404D5A26D22F00602A26500E0A065F0
:100C400023681C221A6084F850002068C268920150
:100C500005D5626D22F4005242F4805262658268CA
:100C6000024B1A40121D8260C5E70000C0FFFF7FE3
:100C700010B590F825100024022903D00421C16387
:100C800001241AE001680A6822F00E020A60016875
:100C90000A6822F001020A6090F84410036C01F027
:100CA0001C02012101FA02F25A6080F8251000218D
:100CB00080F82410816B01B18847204610BD0000E8
:100CC0002DE9FC4FDFF880A1002301250AF1040B78
:100CD00003244FF00F0C0BF1040EAEE005FA03F6FF
:100CE00032406FD04F68012F05D0022F03D0112F53
:100CF00001D0122F17D1D0F808905F0004FA07F83E
:100D000029EA08090097D1F80C8008FA07F848EAA0
:100D10000908C0F808804768B7430E79C6F3001683
:100D20009E403E434660C6684FEA430804FA08F70F
:100D3000BE4301978F6807FA08F73743C7604E68CC
:100D4000022E01D0122E13D1DE0800EB860600968B
:100D5000366A5F07FF0E0CFA07F926EA0906D1F892
:100D6000109009FA07F949EA0609009EC6F8209092
:100D70000768019EB7430E7906F0030606FA08F6E7
:100D80003E4306604E68F60056D5304E376E47F04B
:100D900001073766366E23F0030706F0010600965A
:100DA0002B4E3E44B146B6689F074FEA17780CFABF
:100DB00008F7BE43B0F1904F05D0264FB84204D19A
:100DC000012708E038E0002705E0234FB84201D1B1
:100DD000022700E0072707FA08F73743C9F8087029
:100DE000DAF800605746D1F8048096435FEAC838C5
:100DF00000D516433E60DBF800605F46D1F8048002
:100E000096435FEA883800D516433E60DEF80060FE
:100E10007746D1F8048096435FEAC82800D5164388
:100E20003E60094F0C373E68D1F8048096435FEA74
:100E3000882800D516433E605B1C0A6832FA03F628
:100E40007FF44CAF00F00AB80004014000100240EB
:100E50000000014000040048000800481CBCBDE838
:100E6000E08F0AB1816170478162704701488068F4
:100E7000704700000800002090F84120202A24D16B
:100E800090F84020012A20D0012280F8402024221E
:100E900080F841200268136823F0010313600268A0
:100EA000136823F480531360026813680B431360C4
:100EB00001680A6842F001020A60202180F84110AE
:100EC000002180F84010084670470220704790F8D3
:100ED0004120202A22D190F84020012A1ED0012250
:100EE00080F84020242280F841200268136823F013
:100EF000010313600268136823F4706343EA01215D
:100F0000116001680A6842F001020A60202180F83D
:100F10004110002180F840100846704702207047B9
:100F200070B5040004D094F84100002510B106E02B
:100F3000012070BD84F84050204600F04DF8242078
:100F400084F841002068016821F0010101606068B7
:100F5000216820F0706008612068816821F40041F8
:100F60008160E0680128A06807D040F4044021684F
:100F70008860E068022803D006E040F40040F6E70D
:100F800021684FF40060486020684168114A1143AD
:100F900041602068C16821F40041C160D4E90401C6
:100FA0000843A16940EA01202168C860D4E907012B
:100FB0000843216808602068016841F00101016070
:100FC0006564202084F84100256384F842500020A5
:100FD00070BD00000080000210B586B004461421E8
:100FE0006846FFF72CF91249206888421ED1114C3F
:100FF000E06C40F00200E064E06C694600F0020042
:101000000590C02000901220019001200290032042
:101010000390042004900848FFF752FEA06D40F4AE
:101020000010A065A06D00F40010059006B010BD82
:10103000005400400010024000040048024881684B
:1010400002781144816070470800002010B5002428
:10105000032000F089F8002000F008F808B101240E
:1010600001E000F03DF8204610BD000000B501464B
:1010700087B00022192000F057F8192000F046F838
:101080001348016E41F400610166006E05A900F489
:1010900000600690684600F09BFA00F0CBFA0D491C
:1010A0000D4AB0FBF1F10D48491E0260416040F26B
:1010B000E7320021C0E90321816000F00FFE10B18A
:1010C000012007B000BD054800F04CFEF9E7000024
:1010D0000010024040420F00002C0140CC020020D2
:1010E000094808B5016E41F001010166016E01F089
:1010F00001010091816D41F080518165806D00F0AA
:101100008050009008BD000000100240002809DB5C
:1011100000F01F02012191404009800000F1E02011
:10112000C0F8001170470000F0B40E4B1B680C466D
:10113000C3F30223C3F10705042D00D90425191DAB
:10114000072901D2002300E0DB1E012606FA05F183
:10115000491E214099409E40761E16403143F0BC06
:1011600001F085BF0CED00E0064900F007020868B9
:101170004FF6FF03184040EA0220034A104308607C
:10118000704700000CED00E00000FA051649B0F5CC
:10119000007F0868C0F3412009D0022805D0086804
:1011A00020F4C06040F4806008600020704701288F
:1011B000FBD0086820F4C06040F4007008600B4861
:1011C0003222006850430A4AB0FBF2F0401C00E0B3
:1011D000401E4A69520501D50028F9D148694005E9
:1011E000E3D5032070470000007000401400002089
:1011F00040420F000248006800F4C06070470000E1
:10120000007000400248016841F48071016070473D
:10121000007000400248016841F00401016070471D
:10122000001002402DE9F84F0446002700889C4D2D
:101230003E46000515D5E06B60B1B0F5000F04D057
:10124000B0F5400F2BD001270AE0E86840F4803069
:10125000E86024E00021201D01F0E0FA07001ED024
:101260003E462068800338D5A86D4FF00008C000C6
:1012700009D4A86D40F08050A865A86D4FF0010812
:1012800000F080500090DFF81CA2DAF8001041F462
:101290008071CAF80010FFF7E9FD814610E0D5F82B
:1012A0008800E16B20F440000843C5F88800D8E7C7
:1012B000FFF7DCFDA0EB0900022801D9032704E0B9
:1012C000DAF80000C005F3D5EFB33E46B8F1000FE1
:1012D00003D0A86D20F08050A8652078C00707D003
:1012E000D5F88800216A20F003000843C5F888007B
:1012F0002078800707D5D5F88800616A20F00C00B7
:101300000843C5F888002078800607D5D5F88800FE
:10131000A16A20F440600843C5F888002088800551
:1013200007D5D5F88800616B20F440200843C5F844
:1013300088002088400509D5D5F88800A16B20F4E5
:101340004010084300E02EE0C5F8880020784006F1
:1013500007D5D5F88800E16A20F440500843C5F865
:1013600088002088C00507D5D5F88800216B20F4B7
:1013700040300843C5F8880020884FF0006780049B
:101380004FF080684ED5D5F88800216C20F0406081
:101390000843C5F88800206CB8423BD1E86840F4A7
:1013A0008010E8603EE0D5F8900010F4407014D052
:1013B000216D814211D0D5F89000D5F8901020F41D
:1013C000407041F48031C5F89010D5F8901021F4A8
:1013D0008031C5F89010C5F89000C00711D0FFF714
:1013E00045FD074641F2883907E000BFFFF73EFDA3
:1013F000C11B494501D9032668E7D5F8900080074D
:10140000F4D5D5F89000216D20F440700843C5F85C
:1014100090005BE7404505D10121201D01F0FEF958
:1014200000B106462068400317D5D5F88800616CE6
:1014300020F040600843C5F88800606CB84204D1D1
:10144000E86840F48010E86007E0404505D10121DC
:10145000201D01F0E3F900B106462088400411D5B3
:10146000D5F88800A16C20F040500843C5F88800EA
:10147000A06CB0F1805F05D10221201D01F0CEF9F2
:1014800000B106462088000406D555F8880FE16CA7
:1014900020F0804008432860304600F005B8000086
:1014A000001002400070004018BCBDE8E08F000052
:1014B0002DE9F0470F46050058D0404E306800F047
:1014C0000700B84209D2306820F007003843306086
:1014D000306800F00700B84248D12878384CC0077F
:1014E0002CD06868032811D0022812D0216898B146
:1014F000490500293ADAA16821F003010143A160FE
:10150000FFF7B4FC804641F2883910E02168890178
:10151000EFE721688903ECE78907EAE7FFF7A6FC14
:10152000A0EB0801494502D90320BDE8F087A06877
:10153000696800F00C00B0EB810FEFD128788007CC
:1015400005D5A068A96820F0F0000843A0603068C5
:1015500000F00700B8420BD9306820F0070038438C
:101560003060306800F00700B84201D00120DCE7AD
:101570002878400705D5A068E96820F4E0600843B2
:10158000A0602878000706D5A068296920F460507B
:1015900040EAC100A06000F05FF8A168094AC1F309
:1015A0000311515C01F01F01C8400749086007485A
:1015B0000068BDE8F047FFF759BD00000020024079
:1015C0000010024068340008140000200C000020C5
:1015D0000F2202600C4A936803F003034360936890
:1015E00003F0F0038360936803F4E063C3609268E0
:1015F0004FF4E06303EAD20202610448006800F09D
:101600000700086070470000001002400020024000
:101610000548064900688968054AC1F30221515C02
:1016200001F01F01C8407047140000200010024064
:10163000A83400080548064900688968054AC1F3CE
:10164000C221515C01F01F01C84070471400002006
:1016500000100240A834000870B525490023184640
:101660008A68CC6812F00C0204F00306214C4FEAA1
:10167000640509D00C2A05D0042A32D0082A00D1EA
:10168000284670BD012E10D10B681B0704D4D1F879
:101690009430C3F3032302E00B68C3F30313164E25
:1016A00056F82330DAB10C2AEBD1C86800F00300F9
:1016B000022818D0032818D01846CA68CB68C2F38D
:1016C0000212C3F306234343521CB3FBF2F2C86871
:1016D000C0F34160401C4000B2FBF0F070BD184602
:1016E00070BD204670BD2046E7E72846E5E70000CC
:1016F000001002400024F400783400082DE9F8437B
:1017000004006FD0FE4DA86800F00C06E86800F0F9
:1017100003072078C00664D576B10C2E01D1012FC5
:101720000AD0A069002828687AD040F0010028601B
:10173000FFF79CFB80465DE02868800702D5A06922
:101740000028DED0216A2868000703D5286800F049
:10175000F00004E0D5F89400F02202EA1010814273
:1017600016D9084601F0F0F800283BD1286840F06F
:10177000080028602868216A20F0F00008432860EB
:101780006868E16920F47F4040EA0120686016E063
:10179000286840F0080028602868216A20F0F000DE
:1017A000084328606868E16920F47F4040EA01202E
:1017B000686026B9206A01F0C7F80028D5D1FFF784
:1017C0004BFFA968CF4AC1F30311515C01F01F011F
:1017D000C840CD490860CD480068FFF747FC0028A5
:1017E0007ED12EE0CAE000BFFFF740FBA0EB08006F
:1017F000022876D828688007F6D5286840F00800C7
:1018000028602868216A20F0F00008432860686892
:10181000E16920F47F4040EA0120686011E0FFE7C1
:1018200020F001002860FFF721FB804606E000BFA2
:10183000FFF71CFBA0EB08000228DAD82868800715
:10184000F6D42078C00740D0082E18D00C2E01D135
:10185000032F14D06068B0F5803F17D0B0F5A02FEB
:10186000286817D020F480302860286820F4802071
:1018700028606068E0B1FFF7F9FA804614E0286854
:10188000800322D56068002878D01EE0286840F4E4
:101890008030EDE740F480202860F7E7FFF7E6FAB4
:1018A000A0EB08006428A4D828688003F6D50CE0D3
:1018B000FFF7DCFA804605E0FFF7D8FAA0EB080056
:1018C000642896D828688003F6D4207880073BD512
:1018D000042E11D00C2E01D1022F0DD0E06801E0B2
:1018E000B6E1FFE0002828681ED040F48070286030
:1018F000FFF7BCFA07460CE0286840050CD5E06805
:101900000028C1D008E000BFFFF7B0FAC01B0228D2
:1019100093D828684005F7D56868217C20F0FE4000
:1019200040EA016068600FE020F480702860FFF7F3
:101930009DFA074605E000BFFFF798FAC01B022892
:10194000B1D828684005F7D42078000729D5606908
:101950000028D5F8940012D040F00100C5F894009A
:10196000FFF784FA074604E0FFF780FAC01B02285D
:1019700099D8D5F894008007F6D512E02BE120F035
:101980000100C5F89400FFF771FA074605E000BFB3
:10199000FFF76CFAC01B022885D8D5F894008007A1
:1019A000F6D42078400766D5A86D0027C00008D47B
:1019B000A86D40F08050A865A86D012700F0805008
:1019C000009053480168C90512D40168814641F46A
:1019D00080710160FFF74AFA804605E0FFF746FA9A
:1019E000A0EB080002287DD8D9F80000C005F5D585
:1019F000A068012816D00528D5F8900017D020F04F
:101A00000100C5F89000D5F8900020F0040000BF58
:101A1000C5F89000A06841F28839C0B1FFF726FAF6
:101A200080460FE0D5F8900040F00100F0E740F06C
:101A30000400C5F89000F5E7FFF718FAA0EB0801DD
:101A400049454FD8D5F890008007F5D50EE0FFF74F
:101A50000DFA804606E000BFFFF708FAA0EB080188
:101A600049453FD8D5F890008007F5D41FB1A86D3F
:101A700020F08050A8652078800628D5606A00286C
:101A8000D5F8980012D040F00100C5F89800FFF793
:101A9000EDF9074605E000BFFFF7E8F9C01B022893
:101AA00020D8D5F898008007F6D510E020F0010086
:101AB000C5F89800FFF7DAF9074604E0FFF7D6F912
:101AC000C01B02280ED8D5F898008007F6D4A06A6B
:101AD000A8B1022824D00C2E7DD0286820F0807078
:101AE000286000E0B3E02868000103D4E86820F033
:101AF0000300E860E86807490840E8600CE09FE000
:101B00000010024068340008140000200C0000207F
:101B100000700040FFFFEEFEFFF7A8F9044699E0D1
:101B2000E868E26A00F00301914226D1216B00F0DF
:101B300070020901103991421FD1626B00F4FE411D
:101B4000B1EB022F19D194F8382000F07841B1EBB5
:101B5000C26F12D1A18F00F4C00249084905A1F556
:101B60000011914209D194F8401000F0C06049087A
:101B70004906A1F1007181424BD00C2E6FD028682C
:101B800040016CD4286820F080702860FFF76EF95F
:101B9000064604E0FFF76AF9801B022857D8286838
:101BA0008001F7D4F4E90B016FF00F0202EB011191
:101BB0000843218A5204490802EB4151A26841EAD4
:101BC00002210843217D4FF07E42490802EB41612A
:101BD0000843217B00E042E040EAC160E968214A15
:101BE00011400843E860286840F080702860E86889
:101BF00040F08070E860FFF739F9044605E000BF67
:101C0000FFF734F9001B022821D828688001F7D596
:101C100023E02868800120D4286840F08070286084
:101C2000E86840F08070E860FFF720F9044604E0BF
:101C3000FFF71CF9001B022809D828688001F7D596
:101C40000BE000BFFFF712F9001B022802D90320A6
:101C5000BDE8F88328688001F4D40020F8E701206B
:101C6000F6E700008C809D017047704770470000C8
:101C7000F0B590F83C20012A29D0012480F83C409E
:101C8000022280F83D2003685A689D68114EB342D5
:101C900003D122F470074A683A4322F070070A68B9
:101CA0003A435A600268B24205D0B2F1804F02D086
:101CB000094B9A4204D1896825F080031943916049
:101CC00080F83D40002180F83C100846F0BD02201D
:101CD000F0BD0000002C01400040014010B50400A0
:101CE00003D094F83D0010B107E0012010BD0020A2
:101CF00084F83C00204600F023F8022084F83D00E0
:101D0000211D206800F002FF012084F8480084F8BB
:101D10003E0084F83F0084F8400084F8410084F8D5
:101D2000420084F8430084F8440084F8450084F8B5
:101D3000460084F8470084F83D00002010BD0000F4
:101D400008B50068B0F1804F08D10548816D41F0B9
:101D500001018165806D00F00100009008BD000068
:101D60000010024090F83D10012901D00120704779
:101D7000022180F83D100168CA6842F00102CA6081
:101D800000680B49884205D0B0F1804F02D0094964
:101D9000884207D18168084A1140062906D0B1F56A
:101DA000803F03D0016841F00101016000207047CD
:101DB000002C0140004001400700010070B50446BE
:101DC00090F83C00012817D0012584F83C500220EF
:101DD00084F83D00226890682E4B184020F47F4024
:101DE00090600868502830D00DDC20284DD005DCEC
:101DF00098B310283BD148E0022070BD302844D071
:101E0000402834D139E0602828D0702806D0B0F5B9
:101E1000805F2CD0B0F5005F29D10AE0CB68D1E912
:101E20000121206800F0A8FE2068816841F0770158
:101E300009E0CB68D1E90121206800F09DFE20680F
:101E4000816841F48041816011E0CA684968206876
:101E500000F0A4FE5021206807E016E0CA68496837
:101E6000206800F0ACFE6021206800F08FFE84F84E
:101E70003D50002084F83C0070BDCA684968206865
:101E800000F08CFE40212068EFE7226801461046F2
:101E9000EBE7000088FFFEFF704770B5044600685E
:101EA00001694FF00005C943890715D4C168C943CA
:101EB000890711D4E91E016101202077206880691B
:101EC0008007204602D0FFF7E7FF04E000F0A7F804
:101ED000204600F0A5F8257720680169C943490725
:101EE00017D4C168C943490713D46FF004010161D5
:101EF000022020772068806910F4407F204602D0BD
:101F0000FFF7CAFF04E000F08AF8204600F088F8E6
:101F1000257720680169C943090716D4C168C943F8
:101F2000090712D46FF008010161042020772068AE
:101F3000C0698007204602D0FFF7AEFF04E000F042
:101F40006EF8204600F06CF8257720680169C943D7
:101F5000C90617D4C168C943C90613D46FF010016C
:101F60000161082020772068C06910F4407F204676
:101F700002D0FFF791FF04E000F051F8204600F096
:101F80004FF8257720680169C943C90708D1C1689E
:101F9000C943C90704D1891E0161204600F042F8F7
:101FA00020680169C943090609D4C168C943090603
:101FB00005D46FF0800101612046FFF756FE2068CE
:101FC0000169C943C90509D4C168C943090605D4D3
:101FD0006FF4807101612046FFF746FE20680169B9
:101FE000C943490609D4C168C943490605D46FF0FD
:101FF00040010161204600F01FF820680169C943D3
:1020000089060BD4C168C943890607D46FF0200143
:1020100001612046BDE87040FFF728BE70BD7047E3
:102020007047000000680349884201D1FFF706B8F5
:1020300070470000002C0140704770477047000057
:102040002DE9F04102680446D0691168936840F6B2
:102050000F0528424FF0000505D186067BD58E0678
:1020600079D5216E88E04D4F03F001060F403743CC
:1020700071D0C70707D0CF0505D501271762E26FDA
:1020800042F00102E267820708D5DA0706D0276826
:1020900002223A62E26F42F00402E267420708D588
:1020A000DA0706D0236804221A62E26F42F00202C5
:1020B000E26702070AD501F02002324306D0236806
:1020C00008221A62E26F42F00802E267020509D5AF
:1020D0004A0107D523684FF400621A62E26F42F0AA
:1020E0002002E267E26F002A2ED0800605D588061E
:1020F00003D5216E09B120468847E06F21688968C1
:10210000490602D410F0280F20D0204600F04EFEE1
:1021100020688168490614D5816821F040018160FA
:10212000E06E70B11E498163E06EFEF7A1FD0028EC
:102130000AD0E06E816B00E02046BDE8F041084720
:1021400009E02046FFF77AFFBDE8F0812046FFF75F
:1021500075FFE567F8E7C60209D55B0207D54FF4BE
:10216000801010622046BDE8F041FFF766BF03060D
:1021700005D50B0603D5616E0029DDD1E4E74006E5
:10218000E2D54806E0D51168204621F040011160F3
:1021900020216167656600F06CF9D5E72001000435
:1021A000992D000810B5040002D0606F10B107E04F
:1021B000012010BD002084F87000204600F026F8B1
:1021C000242060672068016821F001010160204639
:1021D00000F0FCFD0128ECD0606A10B1204600F050
:1021E0004BFD2068416821F490414160206881687E
:1021F00021F02A0181602068016841F0010101603D
:102200002046BDE8104000F09BBD0000F0B587B04F
:10221000044614216846FEF712F8284F266800226B
:1022200027490223032407254FF09040BE421FD1C7
:102230000E6E46F480460E660E6E06F480460596D7
:10224000CE6C46F00106CE64C96C02AE01F001010D
:1022500005916102CDE9001386E834006946FEF776
:102260002FFD002211462520FEF75EFF252021E0EC
:10227000144FBE4220D18E6D46F400368E658E6DB1
:1022800006F400360596CE6C46F00106CE64C96CA5
:1022900002AE01F0010105910C21CDE9001386E8A1
:1022A00034006946FEF70CFD002211462620FEF799
:1022B0003BFF2620FEF72AFF07B0F0BD00380140A3
:1022C00000100240004400402DE9F84F0446806FA2
:1022D0009A4616460D4620286BD1EDB1E6B194F82A
:1022E0007000012865D0012084F870004FF00008CC
:1022F000C4F87C802220A067FEF7B8FDA4F85860DF
:102300008146A4F85A60A0684FF48053FF21984298
:1023100008D122691AB11CE0012000F04CB840F24B
:10232000FF1116E07F2290B1B0F1805F14D0A4F8C5
:102330005C8000BFB4F85C70984201D1206990B114
:102340002E46002584F8708007F0FF0825E02669F6
:1023500036B9A4F85C10EDE7216909B13F21F8E72F
:10236000A4F85C20E6E70026ECE74B46002220219B
:102370002046CDF800A000F01BFE08B10320CCE7FA
:102380002068808C8EB100EA080006F8010B00BFBF
:10239000B4F85A00401EA4F85A00B4F85A000028B5
:1023A000E3D12020A0670020B7E7384025F8020BD2
:1023B000EEE70220B1E718BCBDE8E08F2DE9F84355
:1023C0000446406F1F4616460D4620284FD1CDB11A
:1023D000C6B194F87000012849D0012084F870003B
:1023E0004FF00008C4F87C8021206067FEF73EFDB6
:1023F000A4F850608146A4F85260A068B0F5805FF0
:1024000003D004E00120BDE8F883206928B12E46FE
:102410005FF0000584F8708010E00026FAE7802164
:10242000204600F0C5FDB8B9C6B116F8010B216809
:102430000885B4F85200401EA4F85200B4F85200C7
:102440004B464FF0000200970028E8D14FF04001C2
:10245000204600F0ADFD30B10320D4E735F8020B83
:10246000C0F30800E3E7202060670020CBE70220EC
:10247000C9E77047FEE7000010B50521044800F0E9
:10248000CAFEBDE810400A21024800F0B8BE0000B4
:102490002C0200202002002000EB8100006E00F0E2
:1024A000F84070478068C0F3C00070478068C0F390
:1024B00080007047C06810F4406F01D00020704762
:1024C00001207047042303EAD15310B5184443692F
:1024D000C1F3045107248C40A3438A401343436152
:1024E00010BD00EB8100016E21F000411143016637
:1024F0007047000030B587B018216846FDF79FFE91
:10250000184817490024C0E9001484600425C460F9
:10251000C0E90445047644760121C16180F8204079
:102520008462C46280F83040446380F83840FEF72B
:1025300003FA08B172B6FEE70B4800900620CDE919
:1025400001047F200594CDE9030569460548FDF7A0
:10255000F7FF002801D072B6FEE707B030BD0000DB
:10256000000004502400002000106032F0B587B055
:1025700014216846FDF763FE2148C16C41F0040157
:10258000C164C16C01F004010591C16C41F001010D
:10259000C164C16C01F001010591C16C41F00201FF
:1025A000C164C06C4FF0904600F00200059000221C
:1025B00060213046FEF755FC124F002201213846BB
:1025C000FEF74FFC00241020CDE900046946304698
:1025D0000294FEF775FB602000900125CDE90154BF
:1025E000694630460394FEF76BFB0095CDE9015434
:1025F000694638460394FEF763FB07B0F0BD000060
:102600000010024000040048134810B51149016051
:1026100040F61461416000210122C0E9021201610B
:1026200041618161C1610162FEF77AFC08B172B655
:10263000FEE700210848FEF71FFC08B172B6FEE76E
:1026400000210548FEF743FC002801D072B6FEE7E2
:1026500010BD0000005400408800002010B588B074
:102660000024164800940194029403940494059461
:102670004FF080410694C0E90014611EC0E9024198
:1026800004618461FFF72AFB08B172B6FEE74FF4DC
:102690008050009069460948FFF790FB08B172B678
:1026A000FEE7049404A905480694FFF7E1FA002820
:1026B00001D072B6FEE708B010BD0000D4000020C3
:1026C0000C4810B50A4901604FF4165141600021D1
:1026D00081600C22C160C0E904128161C1610162A4
:1026E0004162FFF75FFD002801D072B6FEE710BD22
:1026F00000380140200100200C4810B50A49016053
:102700004FF416514160002181600C22C160C0E984
:1027100004128161C16101624162FFF743FD00283B
:1027200001D072B6FEE710BD00440040A0010020B9
:10273000FEE7FEE770473FB583B0044600F0AEFD0C
:1027400020B1204600F00DFD00283DD00020009073
:10275000042120680AE003EB430201EB8202059B9F
:1027600082589A4206D3009A521C0092A268009B9B
:102770009A42F0D8A0680099884216D0A0686FF0FD
:102780000B0201900EE00199206801EB410100EB82
:10279000810302EB8101451823CD83E823000198D2
:1027A000401E019000998842EDD8206801EB41015C
:1027B00000EB8100049901600599416006998160F0
:1027C000A068401CA060012007B030BD37B50D46A1
:1027D0000446029900F06AFD28B12046029900F0F3
:1027E000D0FC002819D0029804EB8002D2F88000B7
:1027F000116A884202D10020C2F880000298D2F803
:10280000801054F8200040F82150116C491C1164CC
:1028100052F8800F401C106001203EBD2DE9F041B0
:10282000444C05468846E0680026810728680DD09C
:10283000E16801F00301814216D1A8B1E06869683E
:10284000C0F30210401C88420ED120E0012804D0C1
:10285000022805D0032807D108E02168890701E094
:1028600021684905002907DB01265FE0216889030B
:1028700002D421684903F5E7E1686A686FF00F0345
:1028800021F0730103EB021211430143E160206860
:1028900020F080602060FEF7E9FA074605E000BFFF
:1028A000FEF7E4FAC01B022837D820680001F7D4ED
:1028B000B8F1000F18D0B8F1010F1DD0287D4FF0EE
:1028C0007E41400801EB4060A96840EA012021698F
:1028D000194A114008432061206840F08060206060
:1028E000FEF7C4FA07461AE0A868297B000240EA0E
:1028F000C1602169114AECE7288A1149400801EBBF
:102900004050A96840EA012021690E4AE1E700BF72
:10291000FEF7ACFAC01B022801D9032606E02068A6
:102920000001F5D52069A969084320613046BDE85A
:10293000F081000000100240FF80FFF9FF80FF07D8
:102940000000E0FFFF809FFFF8B51C4D0646002405
:10295000A86DC00002D5FEF74DFC0DE0A86D40F05B
:102960008050A865A86D00F080500090FEF742FCF2
:10297000A96D21F08051A965B0F5007F04D0802EAB
:1029800007D94FF003040AE0802E08D9A02E01D801
:1029900004E001D1022402E0702E00D10124084895
:1029A000016821F0070121430160006800F0070081
:1029B000A04201D00120F8BD0020F8BD0010024067
:1029C000002002400EB559B113460246684600F099
:1029D00038FC0099019A029B0548FFF7ACFE0EBD3A
:1029E00003B0014603485DF804EBFFF7EFBE0000BB
:1029F000200200202C020020704700000149012025
:102A0000087070470000002030B5ABB0442115A815
:102A1000FDF715FC142126A8FDF711FC542168468A
:102A2000FDF70DFCFEF7EEFB234850F8901F21F058
:102A300018010160142001251590002417956020CD
:102A4000CDE91C401B9515A81F94FEF757FE08B151
:102A500072B6FEE70F20CDE92604289429940021C0
:102A600026A82A94FEF724FD08B172B6FEE744F2C8
:102A70004300009008944FF0805012901020CDE950
:102A800002500994072004900B94022001950590B0
:102A90000690C00507906846FEF7C4FB08B172B601
:102AA000FEE74FF40070FEF771FB08B172B6FEE767
:102AB000FEF7B0FB2BB030BD001002400D4801689E
:102AC00041F4700101600C48016841F001010160AE
:102AD000002181600268094B1A4002608214C260C2
:102AE000026822F48022026081610249C0038039B9
:102AF0000860704788ED00E000100240FFFFF6EA32
:102B00000148FFF7CAB90000CC02002070B5026886
:102B1000164B4FF08046984201D0B04203D122F0CC
:102B200070044A682243124C124D984205D0B042BC
:102B300003D0A04201D0A84203D122F44076CA6853
:102B400032434E6922F08002324302608A68C262D8
:102B50000A688262984203D0A04201D0A84201D103
:102B6000096901630121416170BD0000002C014031
:102B7000004001400044014010B5846842EA03224D
:102B800024F47F440A432243826010BD826822F00D
:102B900070020A4342F007018160704710B5036A72
:102BA000046A24F001040462846924F0F00444EA15
:102BB000021423F00A020A438461026210BD10B5B8
:102BC000036A23F0100303628369046A23F47043E9
:102BD00043EA023224F0A00343EA01118261016258
:102BE00010BD000010B50D4C607870B1A1780C4894
:102BF00029B100220121FEF734F9002004E001226E
:102C00001146FEF72EF90120A07001224FF47A71CF
:102C1000AFF22F00BDE81040FFF7D4BE0000002047
:102C20000004004808B51148FDF7DEFF64210F4895
:102C3000FDF786FF0D48FDF77CFE014600900C482D
:102C40004268914202D90121417006E000214170A1
:102C50000A4601210748FEF704F900224FF41671D5
:102C6000AFF23F00BDE80840FFF7ACBE24000020F3
:102C7000000000200004004890F82410C90706D086
:102C800001684A68836A22F400321A434A6090F865
:102C90002410890706D501684A68C36A22F4803285
:102CA0001A434A6090F82410490706D501684A681B
:102CB000036B22F480221A434A6090F8241009071B
:102CC00006D501684A68436B22F400421A434A6001
:102CD00090F82410C90606D501688A68836B22F42F
:102CE00080521A438A6090F82410890606D501683C
:102CF0008A68C36B22F400521A438A6090F8241049
:102D0000490611D501684A68036C22F480121A43FF
:102D10004A60016CB1F5801F06D101684A68436CB6
:102D200022F4C0021A434A6090F82410090606D51E
:102D300001684A68806C22F4002202434A607047AE
:102D4000F8B500260446C667FEF790F805462068E9
:102D500000686FF07E47000708D52B4600224FF42D
:102D600000112046009700F023F960B92068006840
:102D700040070AD52B4600224FF4800120460097D9
:102D800000F016F908B10320F8BD20206067A067A5
:102D900084F870600020F8BD10B5806A0021A0F8AA
:102DA0005A10A0F85210FFF749F910BD01680A68DF
:102DB00022F490720A6001688A6822F001028A6037
:102DC0002021816700210166704700002DE9F04154
:102DD0000446016880682269E3691043626900253E
:102DE0001A4310436B4F0A686B4B1A4002430A6048
:102DF00020684168E26821F4405111434160216834
:102E0000A069B94201D0226A10438A6822F4306274
:102E100002438A606149236861488B420DD1D0F832
:102E2000880010F0030006D0012838D0022834D0E2
:102E3000032821D135E001211FE05A498B420BD1F3
:102E4000D0F8880010F00C0025D0042827D00828DE
:102E500023D00C2810D124E0BB420DD1D0F888003B
:102E600010F4406017D0B0F5806F18D0B0F5006F47
:102E700013D0B0F5406F14D010214B4800264FF40A
:102E80000042BB422FD171B1022912D004290DD0CA
:102E9000082973D125E00021EFE70221EDE70421A5
:102EA000EBE70821E9E7FEF7B3FB01E0FEF7D4FB0F
:102EB000F0B3626802EB420181425FD8B0EB023F9F
:102EC0005CD8010E000273084FEA3207C01959415D
:102ED0000023FDF779F9354AA0F54071914251D9A7
:102EE0004CE01046E5E7E3694FF6EF77934229D1CE
:102EF000092943D2DFE801F005080E420B424242A5
:102F00002400FEF785FB04E0FEF794FB01E0FEF7EA
:102F1000A3FB68B14100606801EB5001B1FBF0F028
:102F200080B2A0F11001B94228D84FF6F07100E04C
:102F30002AE00140C0F3420001432068C16023E061
:102F40001046E7E7092919D2DFE801F005080E1855
:102F50000B1818181A00FEF75BFB04E0FEF76AFB7B
:102F600001E0FEF779FB78B1616800EB5100B0FB3E
:102F7000F1F080B2A0F11001B94203D9012503E0BC
:102F80001046F1E72168C860266628466666BDE8F7
:102F9000F081000000800040F369FFEF003801403D
:102FA00000100240004400400024F400FFFC0F0029
:102FB0002DE9F0479A4617460E4604464FF00009A1
:102FC0004FF02008089D39E0681C37D0FDF74EFF10
:102FD000A0EB0A00A84222D80DB320680168490777
:102FE0002CD5C069C043000528D421684FF4006087
:102FF00008622068016821F4D0710160206881684E
:1030000021F001018160C4F87480C4F87880C4F8AC
:103010007C8000BF84F870900320BDE8F0872068B2
:10302000016821F4D07101602068816821F00101FC
:103030008160C4F87480C4F87880EBE72068C069C8
:1030400036EA000004D00020B842BDD00020E4E7FA
:103050000120F9E70148FEF7F3BF0000200100203E
:103060000148FEF7EDBF0000A0010020FEE70907C0
:10307000090E002804DB00F1E02080F800147047FE
:1030800000F00F0000F1E02080F8141D70470000F0
:10309000004870472000002030B528B1144C031FB1
:1030A000002021680A4605E0084630BD9A4203D850
:1030B00010465268002AF9D1002800D041680BD090
:1030C0000468A3EB0005A54204D11B681C44034619
:1030D000046002E0436000E023603AB11C68D51A46
:1030E000A54203D115682C441C6052685A6030BD5B
:1030F000180000202DE9F04782460F4C10480D4E75
:103100000E4F001B4FF0000820F007054FF001099B
:1031100000221146504600F099F8002802D130688C
:1031200010B10020BDE8F0873C60C4E90058C6F843
:103130000090EDE71C0000201C0300201800002078
:103140001805002002E008C8121F08C1002AFAD1A1
:1031500070477047002001E001C1121F002AFBD117
:10316000704770B545680446AD1C05EB450081000D
:10317000206800F043F9002802D0C4E900050120CE
:1031800070BD73B582B00446039804EB8000006AFA
:10319000401D81000090039854F8200000F02EF9A3
:1031A00000282AD0039944F82100039804EB8001F9
:1031B000D1F880000A6E90421CD8009A086E0B6A03
:1031C0001844D1F88030C01A00250BE0039B54F856
:1031D000233053F8206043F82260039B54F82330D7
:1031E00043F82050401E0B6E521E8342EED90A6EE9
:1031F000521D0A6600980862012004B070BD70B5C7
:103200000D4604460C212846FDF724F8C4E90005C4
:103210000020A06070BD73B5002406462546042139
:103220000198FDF717F846F8240006EB8401019891
:1032300008620D640D66C1F88050641C082CEEDB3A
:103240007CBD8360C0E90021704700002DE9F0419A
:103250000B3020F00706104D19E02068B04215D35E
:10326000B0420AD9871B201DD4F80480FDF72CF842
:10327000A019C0E90078286004E060682860201D7B
:10328000FDF722F8201D2660BDE8F081251D2C6881
:10329000002CE2D10020F7E7180000208168406888
:1032A000814201D1012070470020704703B5019988
:1032B00000EB8100016C006A814201D101200CBD4C
:1032C00000200CBD1FB5FDF7C1FEFFF79DFB364882
:1032D0004FF4FA71006848433449B0FBF1F0401EE6
:1032E000B0F1807F53D24FF0E0214861304A4C1753
:1032F000F02082F8140D00258D6107200861FFF78A
:1033000035F9FFF7DDF9FFF7F7F9FFF7F3F8FFF706
:103310007BF9FFF7A3F9FFF7AFF80122254926480B
:10332000FFF754FA002225492348FFF74FFA00958A
:103330002346322222A12F480195FFF73FF823466A
:10334000042269462B48FEF7BFFF9DF800008DF868
:1033500008009DF801008DF809009DF802008DF825
:103360000A009DF803008DF80B000D208DF80C006D
:103370000A208DF80D002346072202A91D48FFF7F9
:103380001DF86846FCF774FF1B4C606000E0FEE728
:10339000207828B10849A1F10C00FDF7B1F825709B
:1033A0000548FDF787F8F3E71400002040420F00BE
:1033B0000FE000E0E52B00082C020020252C00087F
:1033C000456E7465722074656D7065726174757296
:1033D00065207468726573686F6C64202872616E12
:1033E00067653A2030303030202D20333732332992
:1033F0003A20000020010020000000202DE9F047C5
:1034000004008A4616D054F8047CD4F800903E1F7D
:10341000564500D956462046FFF73EFE05468846EB
:10342000324621465046FFF711FF40B1C0F80090E8
:10343000BDE8F087BDE8F0470846FFF75BBE44E90A
:10344000017955B129686A18211F8A4202D9611B86
:10345000091F2960C5F80480EAE7024AC2F8008023
:10346000E6E7000018000020000000000000000057
:103470000102030406070809A0860100400D0300AD
:10348000801A060000350C0040420F0080841E00A8
:1034900000093D0000127A000024F40000366E019D
:1034A0000048E801006CDC02000000000102030497
:1034B0000040404040404040404041414141414047
:1034C00040404040404040404040404040404040FC
:1034D000400502020202020202020202020202028B
:1034E0000220202020202020202020020202020290
:1034F00002029090909090901010101010101010E8
:1035000010101010101010101010101002020202F3
:103510000202888888888888080808080808080837
:103520000808080808080808080808080202020233
:1035300040000000B13400085835000800000020A9
:1035400024000000443100087C35000824000020DD
:10355000F40800005431000800000000B209000027
:1035600001000000100000000000000000093D0004
:0C3570000000000000000000000000004F
:040000050800018D61
:00000001FF
