:020000040800F2
:1000000018080020A5010008F7170008611700086C
:10001000F5170008F902000875200008000000002C
:10002000000000000000000000000000B91A0008F5
:10003000FB02000800000000F9170008BD1A0008C4
:10004000BF010008BF010008BF010008BF01000890
:10005000BF010008BF010008BF010008BF01000880
:10006000BF010008BF010008BF010008BF01000870
:10007000BF010008BF010008BF010008BF01000860
:10008000BF010008BF010008BF010008BF01000850
:10009000BF010008BF010008BF010008BF01000840
:1000A000BF010008A11B0008BF010008BF01000834
:1000B000BF0100080000000000000000BF010008B0
:1000C000BF0100080000000000000000BF010008A0
:1000D000000000005D20000869200008000000000A
:1000E000BF010008BF010008000000000000000080
:1000F0000000000000000000000000000000000000
:10010000000000000000000000000000BF01000827
:100110000000000000000000BF010008BF0100084F
:10012000BF010008BF010008BF010008BF010008AF
:10013000BF010008000000000000000000000000F7
:10014000BF010008BF010008BF010008BF0100088F
:10015000BF010008BF010008BF010008BF0100087F
:10016000BF010008BF010008BF0100080000000037
:10017000BF010008BF0100080000000000000000EF
:10018000BF010008BF010008BF010008DFF810D060
:1001900000F0A0F800480047E9220008AFF3008013
:1001A000180800200648804706480047FEE7FEE79B
:1001B000FEE7FEE7FEE7FEE7FEE7FEE7FEE7FEE717
:1001C0005D1B00088D0100082DE9F05F0546002049
:1001D00092469B4688460646814640241BE02846B8
:1001E00041464746224600F052F853465A46C01A46
:1001F000914110D311461846224600F039F82D1AC5
:1002000067EB01084F4622460120002100F030F83C
:1002100017EB00094E41201EA4F10104DFDC484623
:1002200031462A46434600F000B830BCBDE8C09FC6
:10023000D2B201E000F8012B491EFBD27047002228
:10024000F6E710B513460A4604461946FFF7F0FFD5
:10025000204610BD10B54843044601F04BFF00286E
:1002600005D00021002C02D0641E0155FAE710BD14
:10027000202A04DB203A00FA02F100207047914066
:10028000C2F1200320FA03F3194390407047202A5B
:1002900004DB203A21FA02F00021704721FA02F330
:1002A000D040C2F12002914008431946704740EA0D
:1002B00001039B0703D009E008C9121F08C0042AE4
:1002C000FAD203E011F8013B00F8013B521EF9D2CB
:1002D00070470000064C074D06E0E06840F001035F
:1002E00094E8070098471034AC42F6D3FFF752FF6A
:1002F0005424000874240008FEE7704770B50646D1
:100300005FF0000506EB8500006CC8B106EB8504C4
:1003100056F82500216E50F82100804756F8251028
:10032000226E002041F82200216E491C2166216EB8
:10033000226A914200D12066206C401E206470BD6C
:100340006D1C082DDEDB70BD2DE9F041064680688E
:100350000F46002816D0B46812E000BF306804EBE6
:10036000440100EB8105686838B9AA6829683846F5
:1003700001F085FAB068401EB0606868401E686091
:10038000641EEBD5BDE8F08110B590F8251000246F
:10039000022903D00421C16301241AE001680A681C
:1003A00022F00E020A6001680A6822F001020A6067
:1003B00090F84410036C01F01C02012101FA02F2D2
:1003C0005A6080F82510002180F82410816B01B15B
:1003D0008847204610BD00002DE9FC4FDFF880A1C2
:1003E000002301250AF1040B03244FF00F0C0BF13D
:1003F000040EAEE005FA03F632406FD04F68012FCD
:1004000005D0022F03D0112F01D0122F17D1D0F811
:1004100008905F0004FA07F829EA08090097D1F864
:100420000C8008FA07F848EA0908C0F8088047680D
:10043000B7430E79C6F300169E403E434660C66839
:100440004FEA430804FA08F7BE4301978F6807FA9A
:1004500008F73743C7604E68022E01D0122E13D121
:10046000DE0800EB86060096366A5F07FF0E0CFA80
:1004700007F926EA0906D1F8109009FA07F949EABE
:100480000609009EC6F820900768019EB7430E79C2
:1004900006F0030606FA08F63E4306604E68F600CC
:1004A00056D5304E376E47F001073766366E23F06B
:1004B000030706F0010600962B4E3E44B146B6688F
:1004C0009F074FEA17780CFA08F7BE43B0F1904F38
:1004D00005D0264FB84204D1012708E038E00027B4
:1004E00005E0234FB84201D1022700E0072707FAB1
:1004F00008F73743C9F80870DAF800605746D1F8B2
:10050000048096435FEAC83800D516433E60DBF8A6
:1005100000605F46D1F8048096435FEA883800D5D2
:1005200016433E60DEF800607746D1F804809643BB
:100530005FEAC82800D516433E60094F0C373E6875
:10054000D1F8048096435FEA882800D516433E60C0
:100550005B1C0A6832FA03F67FF44CAF00F00AB86D
:100560000004014000100240000001400004004867
:10057000000800481CBCBDE8E08F0000014880680E
:10058000704700000400002002488168027811448E
:10059000816070470400002010B50024032000F0A3
:1005A00089F8002000F008F808B1012401E000F00B
:1005B0003DF8204610BD000000B5014687B000227E
:1005C000192000F057F8192000F046F81348016E82
:1005D00041F400610166006E05A900F40060069018
:1005E000684600F09BFA00F0CBFA0D490D4AB0FBCB
:1005F000F1F10D48491E0260416040F2E7320021EE
:10060000C0E90321816000F0D8FD10B1012007B0DE
:1006100000BD054800F004FEF9E7000000100240AC
:1006200040420F00002C0140C8010020094808B5D5
:10063000016E41F001010166016E01F001010091BE
:10064000816D41F080518165806D00F08050009097
:1006500008BD000000100240002809DB00F01F0266
:10066000012191404009800000F1E020C0F8001114
:1006700070470000F0B40E4B1B680C46C3F3022316
:10068000C3F10705042D00D90425191D072901D23E
:10069000002300E0DB1E012606FA05F1491E214079
:1006A00099409E40761E16403143F0BC01F0E3BCF9
:1006B0000CED00E0064900F0070208684FF6FF0362
:1006C000184040EA0220034A1043086070470000C7
:1006D0000CED00E00000FA051649B0F5007F08684F
:1006E000C0F3412009D0022805D0086820F4C0607A
:1006F00040F480600860002070470128FBD0086843
:1007000020F4C06040F4007008600B48322200689A
:1007100050430A4AB0FBF2F0401C00E0401E4A6918
:10072000520501D50028F9D148694005E3D50320D9
:1007300070470000007000401000002040420F0091
:100740000248006800F4C06070470000007000407C
:100750000248016841F480710160704700700040F8
:100760000248016841F00401016070470010024036
:100770002DE9F84F0446002700889C4D3E460005B1
:1007800015D5E06B60B1B0F5000F04D0B0F5400FA7
:100790002BD001270AE0E86840F48030E86024E0CC
:1007A0000021201D01F09AF807001ED03E46206867
:1007B000800338D5A86D4FF00008C00009D4A86D9B
:1007C00040F08050A865A86D4FF0010800F08050FF
:1007D0000090DFF81CA2DAF8001041F48071CAF82A
:1007E0000010FFF7CBFE814610E0D5F88800E16BE2
:1007F00020F440000843C5F88800D8E7FFF7BEFEA4
:10080000A0EB0900022801D9032704E0DAF8000070
:10081000C005F3D5EFB33E46B8F1000F03D0A86D85
:1008200020F08050A8652078C00707D0D5F8880050
:10083000216A20F003000843C5F88800207880076B
:1008400007D5D5F88800616A20F00C000843C5F888
:1008500088002078800607D5D5F88800A16A20F4A2
:1008600040600843C5F888002088800507D5D5F882
:100870008800616B20F440200843C5F88800208878
:10088000400509D5D5F88800A16B20F44010084335
:1008900000E02EE0C5F888002078400607D5D5F89E
:1008A0008800E16A20F440500843C5F88800208899
:1008B000C00507D5D5F88800216B20F440300843E7
:1008C000C5F8880020884FF0006780044FF08068EA
:1008D0004ED5D5F88800216C20F040600843C5F85B
:1008E0008800206CB8423BD1E86840F48010E86092
:1008F0003EE0D5F8900010F4407014D0216D814294
:1009000011D0D5F89000D5F8901020F4407041F443
:100910008031C5F89010D5F8901021F48031C5F8D9
:100920009010C5F89000C00711D0FFF727FE0746CA
:1009300041F2883907E000BFFFF720FEC11B49459F
:1009400001D9032668E7D5F890008007F4D5D5F8DB
:100950009000216D20F440700843C5F890005BE7DB
:10096000404505D10121201D00F0B8FF00B1064629
:100970002068400317D5D5F88800616C20F04060EE
:100980000843C5F88800606CB84204D1E86840F4B8
:100990008010E86007E0404505D10121201D00F0EE
:1009A0009DFF00B106462088400411D5D5F8880087
:1009B000A16C20F040500843C5F88800A06CB0F14D
:1009C000805F05D10221201D00F088FF00B106469E
:1009D0002088000406D555F8880FE16C20F080408F
:1009E00008432860304600F005B8000000100240BF
:1009F0000070004018BCBDE8E08F00002DE9F04712
:100A00000F46050058D0404E306800F00700B8424D
:100A100009D2306820F0070038433060306800F0B9
:100A20000700B84248D12878384CC0072CD06868F5
:100A3000032811D0022812D0216898B14905002955
:100A40003ADAA16821F003010143A160FFF796FDA6
:100A5000804641F2883910E021688901EFE721687A
:100A60008903ECE78907EAE7FFF788FDA0EB0801B7
:100A7000494502D90320BDE8F087A068696800F005
:100A80000C00B0EB810FEFD12878800705D5A06866
:100A9000A96820F0F0000843A060306800F007006B
:100AA000B8420BD9306820F0070038433060306816
:100AB00000F00700B84201D00120DCE728784007A9
:100AC00005D5A068E96820F4E0600843A0602878B4
:100AD000000706D5A068296920F4605040EAC100EB
:100AE000A06000F05FF8A168094AC1F30311515CEE
:100AF00001F01F01C8400749086007480068BDE8C9
:100B0000F047FFF759BD00000020024000100240EE
:100B10000C24000810000020080000200F220260B2
:100B20000C4A936803F003034360936803F0F003F7
:100B30008360936803F4E063C36092684FF4E063FA
:100B400003EAD20202610448006800F0070008606E
:100B5000704700000010024000200240054806498E
:100B600000688968054AC1F30221515C01F01F0148
:100B7000C840704710000020001002404C240008BC
:100B80000548064900688968054AC1F3C221515CDD
:100B900001F01F01C8407047100000200010024003
:100BA0004C24000870B52549002318468A68CC6893
:100BB00012F00C0204F00306214C4FEA640509D040
:100BC0000C2A05D0042A32D0082A00D1284670BD4C
:100BD000012E10D10B681B0704D4D1F89430C3F355
:100BE000032302E00B68C3F30313164E56F82330B9
:100BF000DAB10C2AEBD1C86800F00300022818D043
:100C0000032818D01846CA68CB68C2F30212C3F38F
:100C100006234343521CB3FBF2F2C868C0F34160A1
:100C2000401C4000B2FBF0F070BD184670BD20467D
:100C300070BD2046E7E72846E5E7000000100240C7
:100C40000024F4001C2400082DE9F84304006FD0B0
:100C5000FE4DA86800F00C06E86800F00307207855
:100C6000C00664D576B10C2E01D1012F0AD0A0693F
:100C7000002828687AD040F001002860FFF77EFC49
:100C800080465DE02868800702D5A0690028DED094
:100C9000216A2868000703D5286800F0F00004E006
:100CA000D5F89400F02202EA1010814216D90846C5
:100CB00000F0AAFE00283BD1286840F00800286018
:100CC0002868216A20F0F000084328606868E1691C
:100CD00020F47F4040EA0120686016E0286840F078
:100CE000080028602868216A20F0F0000843286086
:100CF0006868E16920F47F4040EA0120686026B915
:100D0000206A00F081FE0028D5D1FFF74BFFA968CB
:100D1000CF4AC1F30311515C01F01F01C840CD4916
:100D20000860CD480068FFF747FC00287ED12EE020
:100D3000CAE000BFFFF722FCA0EB0800022876D82B
:100D400028688007F6D5286840F0080028602868E1
:100D5000216A20F0F000084328606868E16920F407
:100D60007F4040EA0120686011E0FFE720F00100C9
:100D70002860FFF703FC804606E000BFFFF7FEFB9C
:100D8000A0EB08000228DAD828688007F6D420787B
:100D9000C00740D0082E18D00C2E01D1032F14D03C
:100DA0006068B0F5803F17D0B0F5A02F286817D045
:100DB00020F480302860286820F480202860606853
:100DC000E0B1FFF7DBFB804614E02868800322D502
:100DD0006068002878D01EE0286840F48030EDE795
:100DE00040F480202860F7E7FFF7C8FBA0EB08007D
:100DF0006428A4D828688003F6D50CE0FFF7BEFB72
:100E0000804605E0FFF7BAFBA0EB0800642896D8FF
:100E100028688003F6D4207880073BD5042E11D0B3
:100E20000C2E01D1022F0DD0E06801E0B6E1FFE009
:100E3000002828681ED040F480702860FFF79EFBD1
:100E400007460CE0286840050CD5E0680028C1D0B2
:100E500008E000BFFFF792FBC01B022893D8286868
:100E60004005F7D56868217C20F0FE4040EA01602B
:100E700068600FE020F480702860FFF77FFB074672
:100E800005E000BFFFF77AFBC01B0228B1D8286835
:100E90004005F7D42078000729D560690028D5F8E7
:100EA000940012D040F00100C5F89400FFF766FBF3
:100EB000074604E0FFF762FBC01B022899D8D5F86B
:100EC00094008007F6D512E02BE120F00100C5F870
:100ED0009400FFF753FB074605E000BFFFF74EFB0A
:100EE000C01B022885D8D5F894008007F6D4207856
:100EF000400766D5A86D0027C00008D4A86D40F053
:100F00008050A865A86D012700F0805000905348DC
:100F10000168C90512D40168814641F480710160FD
:100F2000FFF72CFB804605E0FFF728FBA0EB08004D
:100F300002287DD8D9F80000C005F5D5A0680128A1
:100F400016D00528D5F8900017D020F00100C5F87C
:100F50009000D5F8900020F0040000BFC5F8900084
:100F6000A06841F28839C0B1FFF708FB80460FE066
:100F7000D5F8900040F00100F0E740F00400C5F81B
:100F80009000F5E7FFF7FAFAA0EB080149454FD8C2
:100F9000D5F890008007F5D50EE0FFF7EFFA804610
:100FA00006E000BFFFF7EAFAA0EB080149453FD889
:100FB000D5F890008007F5D41FB1A86D20F08050BF
:100FC000A8652078800628D5606A0028D5F89800A2
:100FD00012D040F00100C5F89800FFF7CFFA07469D
:100FE00005E000BFFFF7CAFAC01B022820D8D5F8D9
:100FF00098008007F6D510E020F00100C5F89800B1
:10100000FFF7BCFA074604E0FFF7B8FAC01B022856
:101010000ED8D5F898008007F6D4A06AA8B10228A7
:1010200024D00C2E7DD0286820F08070286000E04D
:10103000B3E02868000103D4E86820F00300E8600A
:10104000E86807490840E8600CE09FE000100240B3
:101050000C24000810000020080000200070004050
:10106000FFFFEEFEFFF78AFA044699E0E868E26ABD
:1010700000F00301914226D1216B00F070020901BA
:10108000103991421FD1626B00F4FE41B1EB022F87
:1010900019D194F8382000F07841B1EBC26F12D129
:1010A000A18F00F4C00249084905A1F50011914241
:1010B00009D194F8401000F0C06049084906A1F138
:1010C000007181424BD00C2E6FD0286840016CD447
:1010D000286820F080702860FFF750FA064604E088
:1010E000FFF74CFA801B022857D828688001F7D4F4
:1010F000F4E90B016FF00F0202EB01110843218AA2
:101100005204490802EB4151A26841EA0221084316
:10111000217D4FF07E42490802EB41610843217B6B
:1011200000E042E040EAC160E968214A114008431A
:10113000E860286840F080702860E86840F08070BF
:10114000E860FFF71BFA044605E000BFFFF716FA58
:10115000001B022821D828688001F7D523E02868E1
:10116000800120D4286840F080702860E86840F052
:101170008070E860FFF702FA044604E0FFF7FEF92A
:10118000001B022809D828688001F7D50BE000BFB2
:10119000FFF7F4F9001B022802D90320BDE8F88309
:1011A00028688001F4D40020F8E70120F6E7000069
:1011B0008C809D0170477047704710B5040003D0C4
:1011C00094F83D0010B107E0012010BD002084F824
:1011D0003C00204600F022F8022084F83D00211D4A
:1011E000206800F0E3FC012084F8480084F83E0009
:1011F00084F83F0084F8400084F8410084F84200FD
:1012000084F8430084F8440084F8450084F84600DC
:1012100084F8470084F83D00002010BD70470000AE
:1012200090F83D10012901D001207047022180F87B
:101230003D100168CA6842F00102CA6000680B49AB
:10124000884205D0B0F1804F02D00949884207D1C9
:101250008168084A1140062906D0B1F5803F03D0C5
:10126000016841F00101016000207047002C01403D
:101270000040014007000100704770B50446006857
:1012800001694FF00005C943890715D4C168C943F6
:10129000890711D4E91E0161012020772068806947
:1012A0008007204602D0FFF7E7FF04E000F0A7F830
:1012B000204600F0A5F8257720680169C943490751
:1012C00017D4C168C943490713D46FF00401016101
:1012D000022020772068806910F4407F204602D0E9
:1012E000FFF7CAFF04E000F08AF8204600F088F813
:1012F000257720680169C943090716D4C168C94325
:10130000090712D46FF008010161042020772068DA
:10131000C0698007204602D0FFF7AEFF04E000F06E
:101320006EF8204600F06CF8257720680169C94303
:10133000C90617D4C168C943C90613D46FF0100198
:101340000161082020772068C06910F4407F2046A2
:1013500002D0FFF791FF04E000F051F8204600F0C2
:101360004FF8257720680169C943C90708D1C168CA
:10137000C943C90704D1891E0161204600F042F823
:1013800020680169C943090609D4C168C94309062F
:1013900005D46FF0800101612046FFF70CFF206843
:1013A0000169C943C90509D4C168C943090605D4FF
:1013B0006FF4807101612046FFF7FCFE206801692F
:1013C000C943490609D4C168C943490605D46FF029
:1013D00040010161204600F01FF820680169C943FF
:1013E00089060BD4C168C943890607D46FF0200170
:1013F00001612046BDE87040FFF7DEBE70BD70475A
:101400007047000000680349884201D1FFF7BCB86B
:1014100070470000002C0140704770477047000083
:101420002DE9F04102680446D0691168936840F6DE
:101430000F0528424FF0000505D186067BD58E06A4
:1014400079D5216E88E04D4F03F001060F403743F8
:1014500071D0C70707D0CF0505D501271762E26F06
:1014600042F00102E267820708D5DA0706D0276852
:1014700002223A62E26F42F00402E267420708D5B4
:10148000DA0706D0236804221A62E26F42F00202F1
:10149000E26702070AD501F02002324306D0236832
:1014A00008221A62E26F42F00802E267020509D5DB
:1014B0004A0107D523684FF400621A62E26F42F0D6
:1014C0002002E267E26F002A2ED0800605D588064A
:1014D00003D5216E09B120468847E06F21688968ED
:1014E000490602D410F0280F20D0204600F062FCFC
:1014F00020688168490614D5816821F04001816027
:10150000E06E70B11E498163E06EFEF73DFF00287A
:101510000AD0E06E816B00E02046BDE8F04108474C
:1015200009E02046FFF77AFFBDE8F0812046FFF78B
:1015300075FFE567F8E7C60209D55B0207D54FF4EA
:10154000801010622046BDE8F041FFF766BF030639
:1015500005D50B0603D5616E0029DDD1E4E7400611
:10156000E2D54806E0D51168204621F0400111601F
:1015700020216167656600F0F2F8D5E720010004DC
:10158000A11D000810B5040002D0606F10B107E083
:10159000012010BD002084F87000204600F026F8DD
:1015A000242060672068016821F001010160204665
:1015B00000F010FC0128ECD0606A10B1204600F069
:1015C0005FFB2068416821F4904141602068816898
:1015D00021F02A0181602068016841F00101016069
:1015E0002046BDE8104000F0AFBB0000F0B587B06A
:1015F000044614216846FEF722FE284F2668002282
:1016000027490223032407254FF09040BE421FD1F3
:101610000E6E46F480460E660E6E06F48046059603
:10162000CE6C46F00106CE64C96C02AE01F0010139
:1016300005916102CDE9001386E834006946FEF7A2
:10164000CBFE002211462520FFF714F8252021E0CB
:10165000144FBE4220D18E6D46F400368E658E6DDD
:1016600006F400360596CE6C46F00106CE64C96CD1
:1016700002AE01F0010105910C21CDE9001386E8CD
:1016800034006946FEF7A8FE002211462620FEF728
:10169000F1FF2620FEF7E0FF07B0F0BD0038014063
:1016A00000100240004400402DE9F8430446406F1A
:1016B0001F4616460D4620284FD1CDB1C6B194F82D
:1016C0007000012849D0012084F870004FF0000814
:1016D000C4F87C8021206067FEF750FFA4F85060BA
:1016E0008146A4F85260A068B0F5805F03D004E0A2
:1016F0000120BDE8F883206928B12E465FF000057F
:1017000084F8708010E00026FAE78021204600F07F
:1017100053FCB8B9C6B116F8010B21680885B4F8B6
:101720005200401EA4F85200B4F852004B464FF04D
:10173000000200970028E8D14FF04001204600F059
:101740003BFC30B10320D4E735F8020BC0F30800AE
:10175000E3E7202060670020CBE70220C9E770475D
:10176000FEE7000010B50321044800F066FDBDE867
:1017700010400A21024800F054BD0000280100205A
:101780001C0100200C4810B50A4901604FF41651A5
:101790004160002181600C22C160C0E904128161B6
:1017A000C16101624162FFF7EDFE002801D072B60F
:1017B000FEE710BD003801401C0000200C4810B5A9
:1017C0000A4901604FF416514160002181600C22EA
:1017D000C160C0E904128161C16101624162FFF729
:1017E000D1FE002801D072B6FEE710BD00440040D3
:1017F0009C000020FEE7FEE770472DE9F0470E460B
:1018000015469946044600F05DFD20B1204600F0E3
:10181000A8FC002831D000200422216807E000EB5A
:10182000400302EB8303CB58AB4203D3401CA368B5
:101830008342F4D8A168814212D0A1686FF00B07EF
:101840000CE001EB41022368491E03EB820C07EB1D
:1018500082021A4492E80C018CE80C018142F0D813
:10186000216800EB400001EB8001C1F80890C1E95C
:101870000065A068401CA0600120BDE8F08770B53D
:101880000E4614460546114600F024FD28B12146B7
:10189000284600F076FC00281FD005EB8403D3F81F
:1018A0008000196A884208D055F82400D3F88010C7
:1018B00040F8216053F8400F09E0002043F8800F02
:1018C00055F8240053F8401940F821601868401C6E
:1018D0001860186C401C1864012070BD2DE9F0419F
:1018E000444C05468846E0680026810728680DD0EC
:1018F000E16801F00301814216D1A8B1E06869688E
:10190000C0F30210401C88420ED120E0012804D010
:10191000022805D0032807D108E02168890701E0E3
:1019200021684905002907DB01265FE0216889035A
:1019300002D421684903F5E7E1686A686FF00F0394
:1019400021F0730103EB021211430143E1602068AF
:1019500020F080602060FEF711FE074605E000BF22
:10196000FEF70CFEC01B022837D820680001F7D410
:10197000B8F1000F18D0B8F1010F1DD0287D4FF03D
:101980007E41400801EB4060A96840EA01202169DE
:10199000194A114008432061206840F080602060AF
:1019A000FEF7ECFD07461AE0A868297B000240EA32
:1019B000C1602169114AECE7288A1149400801EB0E
:1019C0004050A96840EA012021690E4AE1E700BFC2
:1019D000FEF7D4FDC01B022801D9032606E02068CB
:1019E0000001F5D52069A969084320613046BDE8AA
:1019F000F081000000100240FF80FFF9FF80FF0728
:101A00000000E0FFFF809FFFF8B51C4D0646002454
:101A1000A86DC00002D5FEF793FE0DE0A86D40F062
:101A20008050A865A86D00F080500090FEF788FEF9
:101A3000A96D21F08051A965B0F5007F04D0802EFA
:101A400007D94FF003040AE0802E08D9A02E01D850
:101A500004E001D1022402E0702E00D101240848E4
:101A6000016821F0070121430160006800F00700D0
:101A7000A04201D00120F8BD0020F8BD00100240B6
:101A8000002002400EB559B113460246684600F0E8
:101A9000ECFB0099019A029B0548FFF7AEFE0EBDD4
:101AA00003B0014603485DF804EBFFF7E8BE000011
:101AB0001C0100202801002070470000014901207E
:101AC000087070470000002010B5ACB0442115A884
:101AD000FEF7B5FB142126A8FEF7B1FB542168469A
:101AE000FEF7ADFBFEF734FE1B4850F8901F21F0C7
:101AF0001801016014201590012000241790CDE9F1
:101B00001B0460201D901F9415A8FFF79DF808B1D5
:101B100072B6FEE70F20CDE926042894299400210F
:101B200026A82A94FEF76AFF08B172B6FEE70320E2
:101B30000090089409946846FEF71AFE08B172B640
:101B4000FEE74FF40070FEF7C7FD08B172B6FEE77E
:101B5000FEF706FE2CB010BD001002400D480168D3
:101B600041F4700101600C48016841F0010101601D
:101B7000002181600268094B1A4002608214C26031
:101B8000026822F48022026081610249C003803928
:101B90000860704788ED00E000100240FFFFF6EAA1
:101BA0000148FFF76ABB0000C801002070B5026859
:101BB000164B4FF08046984201D0B04203D122F03C
:101BC00070044A682243124C124D984205D0B0422C
:101BD00003D0A04201D0A84203D122F44076CA68C3
:101BE00032434E6922F08002324302608A68C26248
:101BF0000A688262984203D0A04201D0A84201D173
:101C0000096901630121416170BD0000002C0140A0
:101C1000004001400044014010B54FF47A730F2298
:101C200005A10948FFF740FD00221146AFF2170059
:101C3000BDE81040FFF726BF546869732069732020
:101C40005461736B410D0A001C00002010B54FF465
:101C50007A730F2205A10948FFF726FD01226421AE
:101C6000AFF21700BDE81040FFF70CBF546869736E
:101C7000206973205461736B420D0A001C00002020
:101C800090F82410C90706D001684A68836A22F4D4
:101C900000321A434A6090F82410890706D501687B
:101CA0004A68C36A22F480321A434A6090F82410CA
:101CB000490706D501684A68036B22F480221A435B
:101CC0004A6090F82410090706D501684A68436BFA
:101CD00022F400421A434A6090F82410C90606D53F
:101CE00001688A68836B22F480521A438A6090F8F4
:101CF0002410890606D501688A68C36B22F4005255
:101D00001A438A6090F82410490611D501684A6880
:101D1000036C22F480121A434A60016CB1F5801FF3
:101D200006D101684A68436C22F4C0021A434A6033
:101D300090F82410090606D501684A68806C22F4E0
:101D4000002202434A607047F8B500260446C66781
:101D5000FEF714FC0546206800686FF07E47000718
:101D600008D52B4600224FF400112046009700F0C2
:101D700023F960B92068006840070AD52B46002285
:101D80004FF480012046009700F016F908B10320B7
:101D9000F8BD20206067A06784F870600020F8BD5F
:101DA00010B5806A0021A0F85A10A0F85210FFF771
:101DB00035FB10BD01680A6822F490720A60016860
:101DC0008A6822F001028A60202181670021016671
:101DD000704700002DE9F0410446016880682269DF
:101DE000E3691043626900251A4310436B4F0A6888
:101DF0006B4B1A4002430A6020684168E26821F494
:101E00004051114341602168A069B94201D0226A62
:101E100010438A6822F4306202438A606149236871
:101E200061488B420DD1D0F8880010F0030006D035
:101E3000012838D0022834D0032821D135E00121EF
:101E40001FE05A498B420BD1D0F8880010F00C00EB
:101E500025D0042827D0082823D00C2810D124E02E
:101E6000BB420DD1D0F8880010F4406017D0B0F517
:101E7000806F18D0B0F5006F13D0B0F5406F14D05C
:101E800010214B4800264FF40042BB422FD171B1C4
:101E9000022912D004290DD0082973D125E0002190
:101EA000EFE70221EDE70421EBE70821E9E7FEF780
:101EB00055FE01E0FEF776FEF0B3626802EB4201E8
:101EC00081425FD8B0EB023F5CD8010E000273087C
:101ED0004FEA3207C01959410023FEF775F9354A18
:101EE000A0F54071914251D94CE01046E5E7E36915
:101EF0004FF6EF77934229D1092943D2DFE801F069
:101F000005080E420B4242422400FEF727FE04E081
:101F1000FEF736FE01E0FEF745FE68B1410060685D
:101F200001EB5001B1FBF0F080B2A0F11001B94219
:101F300028D84FF6F07100E02AE00140C0F34200DB
:101F400001432068C16023E01046E7E7092919D260
:101F5000DFE801F005080E180B1818181A00FEF734
:101F6000FDFD04E0FEF70CFE01E0FEF71BFE78B17C
:101F7000616800EB5100B0FBF1F080B2A0F11001FC
:101F8000B94203D9012503E01046F1E72168C86092
:101F9000266628466666BDE8F081000000800040A5
:101FA000F369FFEF00380140001002400044004098
:101FB0000024F400FFFC0F002DE9F0479A46174675
:101FC0000E4604464FF000094FF02008089D39E006
:101FD000681C37D0FEF7D2FAA0EB0A00A84222D83C
:101FE0000DB32068016849072CD5C069C0430005BE
:101FF00028D421684FF4006008622068016821F449
:10200000D07101602068816821F001018160C4F80D
:102010007480C4F87880C4F87C8000BF84F8709025
:102020000320BDE8F0872068016821F4D0710160C9
:102030002068816821F001018160C4F87480C4F8CF
:102040007880EBE72068C06936EA000004D0002001
:10205000B842BDD00020E4E70120F9E70148FFF7CE
:10206000DFB900001C0000200148FFF7D9B90000CB
:102070009C000020FEE70907090E002804DB00F1A0
:10208000E02080F80014704700F00F0000F1E0201D
:1020900080F8141D7047000030B528B1144C031FA0
:1020A000002021680A4605E0084630BD9A4203D860
:1020B00010465268002AF9D1002800D041680BD0A0
:1020C0000468A3EB0005A54204D11B681C44034629
:1020D000046002E0436000E023603AB11C68D51A56
:1020E000A54203D115682C441C6052685A6030BD6B
:1020F000140000202DE9F04782460F4C10480D4E89
:102100000E4F001B4FF0000820F007054FF00109AB
:1021100000221146504600F0ADF8002802D1306888
:1021200010B10020BDE8F0873C60C4E90058C6F853
:102130000090EDE7180000201C0200201400002091
:102140001804002002E008C8121F08C1002AFAD1B2
:1021500070477047002001E001C1121F002AFBD127
:10216000704770B545680446AD1C05EB450081001D
:10217000206800F015F9002802D0C4E9000501200C
:1021800070BD2DE9F0410D4600EB85040646276A37
:1021900050F82500BF1CB90000F002F900283ED01D
:1021A00046F82500D4F88000216E884235D8D4F84E
:1021B0008000022802D2D4F8803000E00223216A95
:1021C000002002460BE056F825C05CF820E04CF8F1
:1021D00021E056F825C04CF82020401C491C9842AC
:1021E000F1D3D4F88000801E02D5216A801C0844F7
:1021F000022100230BE056F825C05CF821E04CF8E2
:1022000023E056F825C04CF82120491C5B1CD4F86B
:1022100080C08C45EFD8C4F8800027620120BDE85B
:10222000F08170B50D4604460C212846FEF712F8E1
:10223000C4E900050020A06070BD2DE9F041002434
:102240000F460646254604213846FEF703F846F8B1
:10225000240006EB8400076205640566C0F8805020
:10226000641C082CEFDBBDE8F0818360C0E900212D
:10227000704700002DE9F0410B3020F00706104DAB
:1022800019E02068B04215D3B0420AD9871B201D3F
:10229000D4F80480FEF70BF8A019C0E90078286094
:1022A00004E060682860201DFEF701F8201D26600C
:1022B000BDE8F081251D2C68002CE2D10020F7E755
:1022C0001400002081684068814201D101207047DC
:1022D0000020704700EB8100016C006A814201D14F
:1022E000012070470020704708B5FEF755F9FFF749
:1022F000EBFB23483221006848432249B0FBF1F050
:10230000401EB0F1807F2DD24FF0E02148611E4A7F
:10231000F02082F8140D00248C61072008611B480E
:10232000C16C41F00401C164C16C01F00401009171
:10233000C16C41F00101C164C06C00F0010000906B
:10234000FFF720FAFFF73AFAFFF70CFA00221049DC
:102350001048FFF794FA01220F490E48FFF78FFA51
:102360000E4D00E0FEE7287828B10A49A1F10C00E3
:10237000FDF7EAFF2C700748FDF7C0FFF3E7000008
:102380001000002040420F000FE000E0001002406B
:10239000191C0008280100204D1C00080000002026
:1023A0002DE9F04704008A4616D054F8047CD4F88E
:1023B00000903E1F564500D956462046FFF76CFE5A
:1023C00005468846324621465046FFF753FF40B146
:1023D000C0F80090BDE8F087BDE8F0470846FFF779
:1023E00089BE44E9017955B129686A18211F8A42DA
:1023F00002D9611B091F2960C5F80480EAE7024A77
:10240000C2F80080E6E70000140000200000000091
:10241000000000000102030406070809A08601006D
:10242000400D0300801A060000350C0040420F00EA
:1024300080841E0000093D0000127A000024F40090
:1024400000366E010048E801006CDC02000000006C
:102450000102030474240008000000201C00000096
:1024600044210008902400081C000020FC07000004
:1024700054210008000000000100000010000000CE
:102480000000000000093D00000000000000000006
:040000050800018D61
:00000001FF
